:020000040800F2
:10000000000002209D750008556F0008636F00080E
:10001000696F00086F6F0008756F0008000000002E
:100020000000000000000000000000007B6F0008DE
:10003000896F000800000000976F0008A56F000896
:10004000ED750008ED750008ED750008ED75000808
:10005000ED750008ED750008ED750008ED750008F8
:10006000ED750008ED750008ED750008ED750008E8
:10007000ED750008ED750008ED750008ED750008D8
:10008000B16F0008ED750008C56F0008ED75000838
:10009000ED750008ED750008ED750008ED750008B8
:1000A000ED750008D96F0008ED750008ED6F0008C8
:1000B000ED750008ED75000801700008ED75000889
:1000C000ED750008ED750008ED750008ED75000888
:1000D000ED75000815700008ED750008ED75000855
:1000E000ED750008ED750008ED750008ED75000868
:1000F000ED750008ED750008ED750008ED75000858
:10010000ED75000829700008ED750008ED75000810
:10011000ED750008ED7500083D700008ED750008EC
:1001200051700008ED750008ED7500086570000855
:10013000ED7500080000000000000000ED750008EB
:10014000ED750008ED750008ED750008ED75000807
:10015000ED750008ED75000879700008ED75000870
:10016000ED750008ED750008ED750008ED750008E7
:10017000ED750008ED750008ED7500080000000041
:1001800000000000ED750008000000000000000005
:10019000ED7500080000000000000000ED7500088B
:1001A000000000000000000000000000ED750008E5
:1001B000ED750008ED750008ED750008ED75000897
:0401C000ED750008D1
:1001D00010B5054C237833B9044B13B10448AFF381
:1001E00000800123237010BD70000020000000007B
:1001F000A484000808B5034B1BB103490348AFF3BF
:10020000008008BD0000000074000020A4840008E5
:1002100001F0FF01102A2BDB10F0070F08D010F8B7
:10022000013B013A8B422DD010F0070F42B3F6D1BB
:10023000F0B441EA012141EA014122F007047FF0D4
:1002400000070023F0E80256083C85EA010586EA2B
:10025000010685FA47F5A3FA87F586FA47F6A5FA67
:1002600087F68EB9EED1F0BC01F0FF0102F0070273
:1002700032B110F8013B013A83EA010313B1F8D11E
:100280000020704701387047002D06BF35460338FF
:10029000073815F0010F07D1013015F4807F02BF38
:1002A000013015F4C03F0130F0BC0138704700BF89
:1002B00053B94AB9002908BF00281CBF4FF0FF31CD
:1002C0004FF0FF3000F07AB9ADF1080C6DE904CEC3
:1002D00000F006F8DDF804E0DDE9022304B0704721
:1002E0002DE9F0478C460D460446089E002B51D15F
:1002F0008A4217466DD9B2FA82FEBEF1000F0BD0CA
:10030000CEF1200C01FA0EF520FA0CFC02FA0EF7E1
:100310004CEA050C00FA0EF44FEA174A250CBCFB18
:10032000FAF81FFA87F90AFB18CC45EA0C4508FBD6
:1003300009F3AB420AD9ED1908F1FF3280F02381AD
:10034000AB4240F22081A8F102083D44ED1AA4B26C
:10035000B5FBFAF00AFB105544EA054400FB09F925
:10036000A14509D9E41900F1FF3380F00A81A145C4
:1003700040F2078102383C44A4EB090440EA0840FB
:100380000021002E61D024FA0EF400233460736043
:10039000BDE8F0878B4207D9002E54D0002186E8B3
:1003A00021000846BDE8F087B3FA83F1002940F048
:1003B0008E80AB4202D3824200F2FA80841A65EB4F
:1003C00003050120AC46002E3FD086E81010BDE8A2
:1003D000F08712B90127B7FBF2F7B7FA87FEBEF133
:1003E000000F34D1EB1B3A0C1FFA87FC0121B3FB41
:1003F000F2F8250C02FB183345EA03450CFB08F321
:10040000AB4207D9ED1908F1FF3002D2AB4200F23E
:10041000D1808046ED1AA3B2B5FBF2F002FB105575
:1004200043EA05440CFB00FCA44507D9E41900F19C
:10043000FF3302D2A44500F2B8801846A4EB0C04A6
:1004400040EA08409DE731463046BDE8F087CEF1EE
:10045000200405FA0EF307FA0EF720FA04F83A0C16
:1004600025FA04F448EA0308B4FBF2F14FEA184510
:1004700002FB11441FFA87FC45EA044501FB0CF31B
:10048000AB4200FA0EF409D9ED1901F1FF3080F00A
:100490008A80AB4240F2878002393D44EB1A1FFA52
:1004A00088F5B3FBF2F002FB103345EA034500FB8D
:1004B0000CF3AB4207D9ED1900F1FF386FD2AB4214
:1004C0006DD902383D44EB1A40EA01418FE7C1F192
:1004D000200722FA07F88B4005FA01F448EA0303E3
:1004E00020FA07FE4FEA134CFD404EEA040EB5FB1E
:1004F000FCF94FEA1E440CFB19551FFA83F844EA35
:10050000054509FB08F4AC4202FA01F200FA01FACF
:1005100008D9ED1809F1FF3043D2AC4241D9A9F115
:1005200002091D442D1B1FFA8EFEB5FBFCF00CFBCF
:1005300010554EEA054400FB08F8A04507D9E41819
:1005400000F1FF3529D2A04527D902381C4440EAE2
:100550000940A4EB0804A0FB02894C45C6464D4661
:1005600015D312D056B1BAEB0E0364EB050404FAAE
:1005700007F7CB401F43CC40376074600021BDE8D3
:10058000F0871846F8E69046E0E6C245EAD2B8EBB6
:10059000020E69EB03050138E4E72846D7E7404639
:1005A00091E78146BEE7014678E702383C4445E7DB
:1005B000084608E7A8F102083D442BE7704700BF52
:1005C00080B500AF0E4A0E4B1B6843F400731360F6
:1005D0000B4A0B4B1B6843F480631360084A084BBB
:1005E0001B6843F480731360032000F05BFF00205E
:1005F00000F008F806F086FC0023184680BD00BF16
:10060000003C024080B582B000AF7860124B1A689F
:10061000124B1B7819464FF47A73B3FBF1F3B2FB1C
:10062000F3F3184600F073FF0346002B01D00123BB
:100630000EE07B680F2B0AD8002279684FF0FF305C
:1006400000F03BFF064A7B681360002300E00123B3
:1006500018460837BD4680BD080000200400002071
:100660000000002080B400AF064B1B781A46064BF2
:100670001B681344044A136000BFBD465DF8047B49
:10068000704700BF04000020A400002080B400AF29
:10069000034B1B681846BD465DF8047B704700BFDE
:1006A000A400002080B584B000AF7860FFF7EEFFB3
:1006B000B8607B68FB60FB68B3F1FF3F05D0094B76
:1006C0001B781A46FB681344FB6000BFFFF7DEFF90
:1006D0000246BB68D21AFB689A42F7D300BF1037B4
:1006E000BD4680BD0400002080B584B000AF7860B6
:1006F0000023FB737B68002B01D1012333E07B686F
:100700001B6C002B09D17B6800225A647B68002295
:1007100083F83C20786805F0CFFD7B681B6C03F004
:100720001003002B18D17B681B6C23F4885323F033
:10073000020343F002027B681A64786800F070FBE1
:100740007B6800225A647B681B6C23F0030343F030
:1007500001027B681A6401E00123FB737B680022BD
:1007600083F83C20FB7B18461037BD4680BD80B522
:1007700084B000AF78600023FB600023BB607B681F
:100780001B681B6803F00203022B0CBF012300232C
:10079000DBB2FB607B681B685B6803F02003202BE7
:1007A0000CBF01230023DBB2BB60FB68002B49D0E8
:1007B000BB68002B46D07B681B6C03F01003002B3A
:1007C00005D17B681B6C43F400727B681A647B68FC
:1007D0001B689B6803F04053002B2BD17B689B69FF
:1007E000002B27D17B681B68DB6A03F47003002BA6
:1007F00006D07B681B689B6803F48063002B19D1CB
:100800007B681B687A681268526822F020025A607E
:100810007B681B6C23F480727B681A647B681B6C9A
:1008200003F48053002B05D17B681B6C43F001025D
:100830007B681A64786806F001F97B681B686FF0C2
:1008400012021A607B681B681B6803F00403042B08
:100850000CBF01230023DBB2FB607B681B685B6875
:1008600003F08003802B0CBF01230023DBB2BB60AD
:10087000FB68002B57D0BB68002B54D07B681B6CE7
:1008800003F01003002B05D17B681B6C43F400526E
:100890007B681A647B681B689B6803F44013002B19
:1008A00039D17B681B689B6B03F44013002B06D087
:1008B0007B681B689B6803F48063002B2BD17B68EB
:1008C0001B685B6803F48063002B24D17B681B6882
:1008D0009B6803F04053002B1DD17B689B69002B64
:1008E00019D17B681B687A681268526822F080020E
:1008F0005A607B681B6C23F480527B681A647B68A7
:100900001B6C03F48073002B05D17B681B6C43F0D8
:1009100001027B681A64786800F0F4FB7B681B684E
:100920006FF00C021A607B681B681B6803F0010300
:10093000012B0CBF01230023DBB2FB607B681B682B
:100940005B6803F04003402B0CBF01230023DBB2A4
:10095000BB60FB68002B17D0BB68002B14D07B68F2
:100960001B681B6803F00103012B0DD17B681B6C16
:1009700043F480327B681A64786800F015F97B686C
:100980001B686FF001021A607B681B681B6803F02C
:100990002003202B0CBF01230023DBB2FB607B680C
:1009A0001B685B6803F08063B3F1806F0CBF0123A9
:1009B0000023DBB2BB60FB68002B15D0BB68002BAB
:1009C00012D07B685B6C43F002027B685A647B68E0
:1009D0001B686FF020021A60786800F0EFF87B68FF
:1009E0001B686FF020021A6000BF1037BD4680BD43
:1009F00080B586B000AFF860B9607A6000233B61D3
:100A0000FB6893F83C30012B01D10223B0E0FB6876
:100A1000012283F83C20FB681B689B6803F00103FC
:100A2000012B18D0FB681B68FA681268926842F0C4
:100A300001029A60504B1B68504AA2FB03239A0C98
:100A400013465B0013443B6102E03B69013B3B61A1
:100A50003B69002BF9D1FB681B689B6803F001031D
:100A6000002B00F08480FB681B6C23F4E06323F010
:100A7000010343F48072FB681A64FB681B685B68BF
:100A800003F48063002B07D0FB681B6C23F44053F6
:100A900043F48052FB681A64FB681B6C03F48053B8
:100AA000002B06D0FB685B6C23F00602FB685A64DF
:100AB00002E0FB6800225A64FB68002283F83C20B5
:100AC0002F4B7B61FB689B6B2E4ADA63FB689B6B49
:100AD0002D4A1A64FB689B6B2C4ADA64FB681B681E
:100AE0006FF022021A60FB681B68FA68126852688D
:100AF00042F080625A60FB681B68FA68126892686C
:100B000042F480729A60FB68986BFB681B684C33F8
:100B10001946BA687B6800F031FF7B695B6803F0B7
:100B20001F03002B0FD1FB681B689B6803F0405329
:100B3000002B1CD1FB681B68FA681268926842F0AF
:100B400080429A6013E0FB681B68114A93420ED101
:100B5000FB681B689B6803F04053002B07D1FB68C0
:100B60001B68FA681268926842F080429A6000231B
:100B700018461837BD4680BD0800002083DE1B43A1
:100B80000023014015100008BB100008D710000812
:100B90000020014080B483B000AF786000BF0C3704
:100BA000BD465DF8047B704780B483B000AF7860C9
:100BB00000BF0C37BD465DF8047B704780B483B03E
:100BC00000AF786000BF0C37BD465DF8047B70470E
:100BD00090B484B000AF786039600023BB607B685C
:100BE00093F83C30012B01D1022309E17B680122FB
:100BF00083F83C203B681B68092B26D97B681A6860
:100C00007B681B68D9683B681B689BB21846034623
:100C10005B0003441E3B072000FA03F3DB430B4059
:100C2000D3607B681A687B681B68D9683B689868E2
:100C30003B681B689BB21C4623465B0023441E3B5B
:100C400000FA03F30B43D36023E07B681A687B68E8
:100C50001B6819693B681B689BB2184603465B001A
:100C60000344072000FA03F3DB430B4013617B6866
:100C70001A687B681B6819693B6898683B681B6841
:100C80009BB21C4623465B00234400FA03F30B434C
:100C900013613B685B68062B24D87B6819687B6806
:100CA0001B68586B3B685A6813469B001344053B0E
:100CB0001F2202FA03F3DB4303404B637B6819688E
:100CC0007B681B68586B3B681B689BB21C463B6883
:100CD0005A6813469B001344053B04FA03F303438D
:100CE0004B634CE03B685B680C2B24D87B6819682D
:100CF0007B681B68186B3B685A6813469B0013445B
:100D0000233B1F2202FA03F3DB4303400B637B68A0
:100D100019687B681B68186B3B681B689BB21C4694
:100D20003B685A6813469B001344233B04FA03F3C1
:100D300003430B6323E07B6819687B681B68D86AF0
:100D40003B685A6813469B001344413B1F2202FA3A
:100D500003F3DB430340CB627B6819687B681B6845
:100D6000D86A3B681B689BB21C463B685A681346AE
:100D70009B001344413B04FA03F30343CB62234B30
:100D8000FB607B681B68224A934209D13B681B6861
:100D9000122B05D1FB685B6843F48002FB685A6044
:100DA0007B681B681A4A934225D13B681B68194A25
:100DB000934203D03B681B68112B1CD1FB685B6816
:100DC00043F40002FB685A603B681B68114A934277
:100DD00011D1114B1B68114AA2FB03239A0C134635
:100DE0009B0013445B00BB6002E0BB68013BBB603F
:100DF000BB68002BF9D17B68002283F83C200023DC
:100E000018461037BD4690BC704700BF0023014014
:100E100000200140120000100800002083DE1B4368
:100E200080B485B000AF7860784BFB60FB685B688E
:100E300023F44032FB685A60FB685A687B685B6841
:100E40001A43FB685A607B681B687A6812685268AC
:100E500022F480725A607B681B687A681268516855
:100E60007A68126912020A435A607B681B687A68C2
:100E70001268526822F040725A607B681B687A6878
:100E8000126851687A6892680A435A607B681B68E6
:100E90007A681268926822F400629A607B681B6824
:100EA0007A68126891687A68D2680A439A607B68A7
:100EB0009B6A574A934222D07B681B687A68126803
:100EC000926822F070629A607B681B687A68126888
:100ED00091687A68926A0A439A607B681B687A68AC
:100EE0001268926822F040529A607B681B687A68A8
:100EF000126891687A68D26A0A439A600FE07B6848
:100F00001B687A681268926822F070629A607B6847
:100F10001B687A681268926822F040529A607B6877
:100F20001B687A681268926822F002029A607B68F5
:100F30001B687A68126891687A68926952000A435D
:100F40009A607B681B6A002B1BD07B681B687A68E1
:100F50001268526842F400625A607B681B687A68C3
:100F60001268526822F460425A607B681B687A6893
:100F7000126851687A68526A013A52030A435A6009
:100F800007E07B681B687A681268526822F4006286
:100F90005A607B681B687A681268D26A22F4700211
:100FA000DA627B681B687A681268D16A7A68D269EB
:100FB000013A12050A43DA627B681B687A68126894
:100FC000926822F400729A607B681B687A681268E3
:100FD00091687A68126B52020A439A607B681B68B8
:100FE0007A681268926822F480629A607B681B6853
:100FF0007A68126891687A68526992020A439A6024
:1010000000BF1437BD465DF8047B704700230140E4
:101010000100000F80B584B000AF78607B689B6BE7
:10102000FB60FB681B6C03F05003002B3CD1FB689A
:101030001B6C43F40072FB681A64FB681B689B68B6
:1010400003F04053002B2BD1FB689B69002B27D169
:10105000FB681B68DB6A03F47003002B06D0FB6897
:101060001B689B6803F48063002B19D1FB681B6825
:10107000FA681268526822F020025A60FB681B6C02
:1010800023F48072FB681A64FB681B6C03F48053C2
:10109000002B05D1FB681B6C43F00102FB681A644E
:1010A000F86805F0CBFC04E0FB689B6BDB6C7868B0
:1010B000984700BF1037BD4680BD80B584B000AFF3
:1010C00078607B689B6BFB60F868FFF763FD00BF8F
:1010D0001037BD4680BD80B584B000AF78607B68B6
:1010E0009B6BFB60FB6840221A64FB685B6C43F0FF
:1010F0000402FB685A64F868FFF760FD00BF103710
:10110000BD4680BD80B483B000AF786000BF0C37AF
:10111000BD465DF8047B704780B584B000AF786051
:101120000023FB607B68002B01D10123ECE07B688E
:1011300093F82030DBB2002B02D1786805F0DEF99D
:101140007B681B687A681268126822F002021A60D3
:10115000FFF79CFAF86012E0FFF798FA0246FB6886
:10116000D31A0A2B0BD97B685B6A43F400327B6885
:101170005A627B68052283F820200123C4E07B6843
:101180001B685B6803F00203002BE5D17B681B68DA
:101190007A681268126842F001021A60FFF776FA64
:1011A000F86012E0FFF772FA0246FB68D31A0A2BC6
:1011B0000BD97B685B6A43F400327B685A627B68B8
:1011C000052283F8202001239EE07B681B685B6872
:1011D00003F00103002BE5D07B681B7E012B08D1B7
:1011E0007B681B687A681268126842F080021A6095
:1011F00007E07B681B687A681268126822F0800238
:101200001A607B685B7E012B08D17B681B687A685B
:101210001268126842F040021A6007E07B681B689F
:101220007A681268126822F040021A607B689B7E1E
:10123000012B08D17B681B687A681268126842F03B
:1012400020021A6007E07B681B687A6812681268DF
:1012500022F020021A607B68DB7E012B08D17B68BC
:101260001B687A681268126822F010021A6007E0A0
:101270007B681B687A681268126842F010021A6074
:101280007B681B7F012B08D17B681B687A6812681A
:10129000126842F008021A6007E07B681B687A68EF
:1012A0001268126822F008021A607B685B7F012BCB
:1012B00008D17B681B687A681268126842F00402E1
:1012C0001A6007E07B681B687A681268126822F06F
:1012D00004021A607B681B687A6891687A68D26831
:1012E00011437A68126911437A68526911437A6826
:1012F0005268013A0A43DA617B6800225A627B68CD
:10130000012283F82020002318461037BD4680BDF7
:1013100080B485B000AF78607B6803F00703FB60A2
:101320000C4BDB68BB60BA684FF6FF031340BB6031
:10133000FB681A02BB68134343F0BF6343F40033F6
:10134000BB60044ABB68D36000BF1437BD465DF87C
:10135000047B704700ED00E080B400AF044BDB6815
:101360001B0A03F007031846BD465DF8047B70476F
:1013700000ED00E080B483B000AF0346FB71094983
:1013800097F907305B09FA7902F01F02012000FA91
:1013900002F241F8232000BF0C37BD465DF8047B04
:1013A000704700BF00E100E080B483B000AF0346A7
:1013B0003960FB7197F90730002B0BDA0D49FB7987
:1013C00003F00F03043B3A68D2B21201D2B20B44CD
:1013D0001A7609E0084997F907303A68D2B2120143
:1013E000D2B20B4483F8002300BF0C37BD465DF832
:1013F000047B704700ED00E000E100E080B489B0BC
:1014000000AFF860B9607A60FB6803F00703FB6126
:10141000FB69C3F10703042B28BF0423BB61FB69ED
:101420000433062B02D9FB69033B00E000237B61F8
:101430000122BB6902FA03F35A1EBB681A407B699A
:101440009A4001217B6901FA03F3591E7B680B4026
:10145000134318462437BD465DF8047B70470000EF
:1014600080B582B000AF78607B68013BB3F1807FCC
:1014700001D301230FE00A4A7B68013B53600F212F
:101480004FF0FF30FFF790FF054B00229A60044BAE
:1014900007221A60002318460837BD4680BD00BFEA
:1014A00010E000E080B582B000AF78607868FFF7A8
:1014B0002FFF00BF0837BD4680BD80B586B000AFA6
:1014C0000346B9607A60FB7300237B61FFF744FF3A
:1014D00078617A68B9687869FFF790FF024697F9F2
:1014E0000F3011461846FFF75FFF00BF1837BD46A3
:1014F00080BD80B582B000AF0346FB7197F907301D
:101500001846FFF737FF00BF0837BD4680BD80B5DE
:1015100082B000AF78607868FFF7A2FF03461846F4
:101520000837BD4680BD80B582B000AF78607B686B
:10153000002B01D1012314E07B681B79DBB2002B67
:1015400005D17B6800225A71786805F0BDF87B6888
:1015500002221A717B6800221A617B6801221A71CB
:10156000002318460837BD4680BD80B485B000AF63
:10157000786039600023FB600023BB607B685B7987
:10158000012B01D1022351E07B6801225A717B6853
:1015900002221A717B681B687A6812681168012040
:1015A0003A6800FA02F20A431A603B68002B1AD12B
:1015B0007B681B681B6803F00403FB607B681B6887
:1015C0001B6803F03803BB60FB68042B27D1BB68A2
:1015D000382B24D17B681B687A681268526842F005
:1015E00001025A601BE07B681B681B6803F48023C0
:1015F000FB607B681B681B6803F46013BB60FB68BF
:10160000B3F5802F0BD1BB68B3F5601F07D17B68A2
:101610001B687A681268526842F002025A607B685E
:1016200001221A717B6800225A7100231846143770
:10163000BD465DF8047B704780B483B000AF78602E
:1016400039603B68002B03D17B681B68DB6A02E0D2
:101650007B681B681B6B18460C37BD465DF8047B26
:10166000704780B582B000AF78607B681B685B6BA9
:1016700003F40053B3F5005F18D17B6804221A719C
:101680007B681B6943F001027B681A617B681B68F9
:101690004FF400525A637B681B687A6812681268BC
:1016A00022F480521A60786800F025F87B681B6885
:1016B0005B6B03F00053B3F1005F18D17B68042229
:1016C0001A717B681B6943F002027B681A617B68B0
:1016D0001B684FF000525A637B681B687A68126877
:1016E000126822F080521A60786800F08EF800BF0D
:1016F0000837BD4680BD80B483B000AF786000BFBE
:101700000C37BD465DF8047B704780B487B000AFEE
:10171000F860B9607A6000237B6100233B61FB685D
:101720005B79012B01D1022336E0FB6801225A715B
:10173000FB6802221A71FB681B681B687B6140F61C
:10174000FE727B6802FA03F3DB437A6913407B6124
:10175000BB681A68BB685B6813433B613A697B6886
:1017600002FA03F37A6913437B61FB681B687A69A9
:101770001A60FB681B68FA6812681168C0207A68F2
:1017800000FA02F2D2430A401A60FB6801221A7181
:10179000FB6800225A71002318461C37BD465DF8CD
:1017A000047B704780B485B000AFF860B9607A60A0
:1017B000FB685B79012B01D1022320E0FB68012249
:1017C0005A71FB6802221A71FB681B68FA6812687A
:1017D00011684FF47C60BA6800FA02F2D2431140FB
:1017E0007A6842F08000BA6800FA02F20A431A608E
:1017F000FB6801221A71FB6800225A710023184607
:101800001437BD465DF8047B704780B483B000AFE9
:10181000786000BF0C37BD465DF8047B7047000060
:1018200080B586B000AF786000237B61FEF72EFFA5
:1018300038617B68002B01D1012399E07B6800228D
:1018400083F834207B68022283F835207B681B688C
:101850007A681268126822F001021A600FE0FEF73F
:1018600015FF02463B69D31A052B08D97B68202255
:101870005A657B68032283F83520032378E07B6870
:101880001B681B6803F00103002BE8D17B681B6811
:101890001B687B617A69384B13407B617B685A68AF
:1018A0007B689B681A437B68DB681A437B681B690B
:1018B0001A437B685B691A437B689B691A437B68A0
:1018C000DB691A437B681B6A13437A6913437B61A4
:1018D0007B685B6A042B07D17B68DA6A7B681B6BC9
:1018E00013437A6913437B617B681B687A691A60CA
:1018F0007B681B685B697B617B6923F007037B6105
:101900007B685B6A7A6913437B617B685B6A042B43
:1019100017D17B689B6A7A6913437B617B68DB6ABA
:10192000002B0ED0786800F099FA0346002B08D0FF
:101930007B6840225A657B68012283F835200123A9
:1019400016E07B681B687A695A61786800F050FA83
:101950000346FB607B68DB6D3F229A40FB689A6020
:101960007B6800225A657B68012283F835200023BA
:1019700018461837BD4680BD3F8010F080B586B050
:1019800000AFF860B9607A603B600023FB75FB68CC
:101990009B6D3B61FB6893F83430012B01D102232E
:1019A00048E0FB68012283F83420FB6893F8353067
:1019B000DBB2012B37D1FB68022283F83520FB68AC
:1019C00000225A653B687A68B968F86800F0E2F965
:1019D000FB68DB6D3F229A403B699A60FB681B689D
:1019E000FA681268126842F016021A60FB681B68F7
:1019F000FA681268526942F080025A61FB681B6CF7
:101A0000002B07D0FB681B68FA681268126842F066
:101A100008021A60FB681B68FA681268126842F0D4
:101A200001021A6005E0FB68002283F834200223DB
:101A3000FB75FB7D18461837BD4680BD80B483B06A
:101A400000AF78607B6893F83530DBB2022B04D0AE
:101A50007B6880225A6501230CE07B68052283F8AD
:101A600035207B681B687A681268126822F00102D0
:101A70001A60002318460C37BD465DF8047B70479A
:101A800080B586B000AF78600023BB60924B1B68C6
:101A9000924AA2FB03239B0A7B617B689B6D3B619F
:101AA0003B691B68FB607B68DB6D08229A40FB6822
:101AB0001340002B1AD07B681B681B6803F00403DB
:101AC000002B13D07B681B687A681268126822F0BA
:101AD00004021A607B68DB6D08229A403B699A60B9
:101AE0007B685B6D43F001027B685A657B68DB6D48
:101AF00001229A40FB681340002B12D07B681B68C0
:101B00005B6903F08003002B0BD07B68DB6D012247
:101B10009A403B699A607B685B6D43F002027B6888
:101B20005A657B68DB6D04229A40FB681340002BEA
:101B300012D07B681B681B6803F00203002B0BD0DC
:101B40007B68DB6D04229A403B699A607B685B6D21
:101B500043F004027B685A657B68DB6D10229A4073
:101B6000FB681340002B43D07B681B681B6803F0A5
:101B70000803002B3CD07B68DB6D10229A403B6948
:101B80009A607B681B681B6803F48023002B18D0C5
:101B90007B681B681B6803F40023002B08D17B685B
:101BA0001B6C002B24D07B681B6C786898471FE067
:101BB0007B689B6C002B1BD07B689B6C786898477C
:101BC00016E07B681B681B6803F48073002B07D149
:101BD0007B681B687A681268126822F008021A6033
:101BE0007B681B6C002B03D07B681B6C7868984764
:101BF0007B68DB6D20229A40FB681340002B00F0CD
:101C00008E807B681B681B6803F01003002B00F0BC
:101C100086807B68DB6D20229A403B699A607B68F6
:101C200093F83530DBB2052B36D17B681B687A68B8
:101C30001268126822F016021A607B681B687A68C4
:101C40001268526922F080025A617B681B6C002B7B
:101C500003D17B689B6C002B07D07B681B687A687C
:101C60001268126822F008021A607B68DB6D3F225E
:101C70009A403B699A607B68002283F834207B6835
:101C8000012283F835207B681B6D002B7DD07B689B
:101C90001B6D7868984778E07B681B681B6803F4C5
:101CA0008023002B1CD07B681B681B6803F4002377
:101CB000002B08D17B685B6C002B30D07B685B6CA1
:101CC000786898472BE07B68DB6B002B27D07B681C
:101CD000DB6B7868984722E008000020B5814E1B36
:101CE0007B681B681B6803F48073002B0FD17B6833
:101CF0001B687A681268126822F010021A607B680A
:101D0000002283F834207B68012283F835207B6829
:101D1000DB6B002B03D07B68DB6B786898477B68B4
:101D20005B6D002B32D07B685B6D03F00103002BF1
:101D300022D07B68052283F835207B681B687A688F
:101D40001268126822F001021A60BB680133BB609E
:101D50007A69934207D87B681B681B6803F001030C
:101D6000002BF2D100E000BF7B68002283F8342012
:101D70007B68012283F835207B68DB6C002B05D063
:101D80007B68DB6C7868984700E000BF1837BD4679
:101D900080BD00BF80B485B000AFF860B9607A60E4
:101DA0003B60FB681B68FA681268126822F48022A4
:101DB0001A60FB681B683A685A60FB689B68402B96
:101DC00008D1FB681B687A689A60FB681B68BA6870
:101DD000DA6007E0FB681B68BA689A60FB681B68FA
:101DE0007A68DA6000BF1437BD465DF8047B70473F
:101DF00080B485B000AF78607B681B68DBB2103BB5
:101E0000144AA2FB03231B09FB60134AFB6813441B
:101E10001B781A467B68DA65FB68032B09D97B6857
:101E20001B6823F47F7323F003031A1D7B689A65F4
:101E300007E07B681B6823F47F7323F003037A6851
:101E400093657B689B6D18461437BD465DF8047B2F
:101E5000704700BFABAAAAAAB085000880B485B0BD
:101E600000AF78600023FB737B689B6ABB607B6874
:101E70009B69002B1FD1BB68032B55D801A252F8D8
:101E800023F000BF951E0008A71E0008951E00083D
:101E9000291F00087B68DB6A03F08073002B45D0A4
:101EA0000123FB7342E07B68DB6AB3F1C07F3FD163
:101EB0000123FB733CE07B689B69B3F5005F21D194
:101EC000BB68032B36D801A252F823F0DD1E0008B0
:101ED000E31E0008DD1E0008F51E00080123FB7349
:101EE0002FE07B68DB6A03F08073002B24D0012392
:101EF000FB7321E07B68DB6AB3F1C07F1ED1012355
:101F0000FB731BE0BB68022B02D9032B03D018E044
:101F10000123FB7315E07B68DB6A03F08073002B01
:101F20000ED00123FB730BE000BF0AE000BF08E006
:101F300000BF06E000BF04E000BF02E000BF00E019
:101F400000BFFB7B18461437BD465DF8047B704725
:101F500080B489B000AF7860396000237B610023D2
:101F60003B610023BB610023FB6165E10122FB694A
:101F700002FA03F37B613B681A687B6913403B619B
:101F80003A697B699A4240F054813B685B68022B56
:101F900003D03B685B68122B23D1FB69DA087B68AE
:101FA000083253F82230BB61FB6903F007039B0042
:101FB0000F2202FA03F3DB43BA691340BB613B68AB
:101FC0001A69FB6903F007039B0002FA03F3BA697D
:101FD0001343BB61FB69DA087B680832B96943F8CF
:101FE00022107B681B68BB61FB695B00032202FA5D
:101FF00003F3DB43BA691340BB613B685B6803F0E2
:102000000302FB695B0002FA03F3BA691343BB6185
:102010007B68BA691A603B685B68012B0BD03B6830
:102020005B68022B07D03B685B68112B03D03B68D1
:102030005B68122B30D17B689B68BB61FB695B00DE
:10204000032202FA03F3DB43BA691340BB613B6826
:10205000DA68FB695B0002FA03F3BA691343BB61F8
:102060007B68BA699A607B685B68BB610122FB6927
:1020700002FA03F3DB43BA691340BB613B685B6858
:102080001B0903F00102FB6902FA03F3BA69134367
:10209000BB617B68BA695A607B68DB68BB61FB69BE
:1020A0005B00032202FA03F3DB43BA691340BB610E
:1020B0003B689A68FB695B0002FA03F3BA69134351
:1020C000BB617B68BA69DA603B685B6803F0805388
:1020D000002B00F0AE800023FB605C4A5B4B5B6C26
:1020E00043F480435364594B5B6C03F48043FB60BF
:1020F000FB68574AFB699B08023352F82330BB61E7
:10210000FB6903F003039B000F2202FA03F3DB4396
:10211000BA691340BB617B684E4A934225D07B6805
:102120004D4A93421FD07B684C4A934219D07B683A
:102130004B4A934213D07B684A4A93420DD07B6846
:10214000494A934207D07B68484A934201D106230B
:102150000CE007230AE0052308E0042306E003233C
:1021600004E0022302E0012300E00023FA6902F008
:10217000030292009340BA691343BB613449FB697F
:102180009B080233BA6941F82320394B1B68BB61B5
:102190003B69DB43BA691340BB613B685B6803F48E
:1021A0008033002B03D0BA693B691343BB61304ACB
:1021B000BB6913602E4B5B68BB613B69DB43BA694B
:1021C0001340BB613B685B6803F40033002B03D012
:1021D000BA693B691343BB61254ABB695360244B11
:1021E0009B68BB613B69DB43BA691340BB613B68D9
:1021F0005B6803F48013002B03D0BA693B69134377
:10220000BB611B4ABB699360194BDB68BB613B69CF
:10221000DB43BA691340BB613B685B6803F400139E
:10222000002B03D0BA693B691343BB61104ABB69F9
:10223000D360FB690133FB61FB690F2B7FF696AE20
:1022400000BF2437BD465DF8047B7047003802406C
:102250000038014000000240000402400008024033
:10226000000C02400010024000140240001802401E
:10227000003C014080B483B000AF78600B467B80A7
:1022800013467B707B78002B03D07A887B689A6139
:1022900003E07B881A047B689A6100BF0C37BD4657
:1022A0005DF8047B7047000080B582B000AF00236A
:1022B0007B6000233B60204A1F4B1B6C43F0805324
:1022C00013641D4B1B6C03F080533B603B681B4B3E
:1022D00001221A60FEF7DAF9786009E0FEF7D6F914
:1022E00002467B68D31AB3F57A7F01D903231FE036
:1022F000134B5B6803F48033B3F5803FEED1114B91
:1023000001221A60FEF7C2F9786009E0FEF7BEF913
:1023100002467B68D31AB3F57A7F01D9032307E01D
:10232000074B5B6803F40033B3F5003FEED10023A5
:1023300018460837BD4680BD0038024040000E42B6
:102340000070004044000E4280B584B000AF786059
:1023500039607B68002B01D10123CAE0674B1B6801
:1023600003F00F023B689A420CD2644B3A68D2B237
:102370001A70624B1B6803F00F023B689A4201D04F
:102380000123B6E07B681B6803F00203002B20D01A
:102390007B681B6803F00403002B05D0584A584B98
:1023A0009B6843F4E05393607B681B6803F0080369
:1023B000002B05D0524A524B9B6843F46043936014
:1023C0004F494F4B9B6823F0F0027B689B68134397
:1023D0008B607B681B6803F00103002B44D07B6893
:1023E0005B68012B07D1464B1B6803F40033002BBD
:1023F00019D101237DE07B685B68022B03D07B68E9
:102400005B68032B07D13E4B1B6803F00073002B66
:1024100009D101236DE03A4B1B6803F00203002B46
:1024200001D1012365E03649354B9B6823F0030257
:102430007B685B6813438B60FEF728F9F8600AE05D
:10244000FEF724F90246FB68D31A41F28832934220
:1024500001D903234DE02A4B9B6803F00C027B68F3
:102460005B689B009A42EBD1244B1B6803F00F0280
:102470003B689A420CD9214B3A68D2B21A701F4B72
:102480001B6803F00F023B689A4201D0012330E041
:102490007B681B6803F00403002B08D01849184B15
:1024A0009B6823F4E0527B68DB6813438B607B6896
:1024B0001B6803F00803002B09D01149104B9B68DF
:1024C00023F460427B681B69DB0013438B6000F0E0
:1024D0007BFB01460A4B9B681B0903F00F03094A6B
:1024E000D35C21FA03F3084A13600020FEF78AF850
:1024F000002318461037BD4680BD00BF003C024097
:1025000000380240B88500080800002080B400AF01
:10251000034B1B681846BD465DF8047B704700BF3F
:102520000800002080B500AFFFF7F0FF0146054B23
:102530009B689B0A03F00703034AD35C21FA03F369
:10254000184680BD00380240C885000880B500AF3D
:10255000FFF7DCFF0146054B9B685B0B03F00703AD
:10256000034AD35C21FA03F3184680BD00380240C9
:10257000C885000880B58CB000AF786000237B620E
:1025800000233B620023FB610023BB6100237B61CE
:1025900000233B610023FB600023FB620023BB623E
:1025A0007B681B6803F00103002B10D06F496F4B51
:1025B000D3F88C3023F0C0627B689B6B1343C1F867
:1025C0008C307B689B6B002B01D10123FB627B6805
:1025D0001B6803F00203002B10D06449634BD3F84F
:1025E0008C3023F0C0527B68DB6B1343C1F88C3016
:1025F0007B68DB6B002B01D10123FB627B681B68CE
:1026000003F00403002B17D05849584BD3F88C30F3
:1026100023F440127B681B6B1343C1F88C307B683A
:102620001B6BB3F5801F01D10123FB627B681B6B21
:10263000002B01D10123BB627B681B6803F00803F8
:10264000002B17D04949494BD3F88C3023F4400272
:102650007B685B6B1343C1F88C307B685B6BB3F5B5
:10266000800F01D10123FB627B685B6B002B01D1E2
:102670000123BB627B681B6803F02003002B00F082
:102680008A800023BB60394A384B1B6C43F080536F
:102690001364364B1B6C03F08053BB60BB68344A39
:1026A000334B1B6843F480731360FDF7EFFF7862D0
:1026B00008E0FDF7EBFF02467B6AD31A022B01D933
:1026C000032378E22A4B1B6803F48073002BF0D0BD
:1026D000264B1B6F03F440733B623B6A002B2FD0E9
:1026E0007B681B6C03F440723B6A9A4228D01F4BF4
:1026F0001B6F23F440733B621E4B01221A601D4B7B
:1027000000221A60194A3B6A1367184B1B6F03F0CB
:102710000103002B14D0FDF7B9FF78620AE0FDF742
:10272000B5FF02467B6AD31A41F28832934201D93F
:10273000032340E20D4B1B6F03F00203002BEED08E
:102740007B681B6C03F44073B3F5407F14D10749D9
:10275000064B9B6823F4F8127B681B6C23F07043D4
:1027600023F4407313438B600CE000BF0038024039
:1027700000700040400E47424A4A4A4B9B6823F48F
:10278000F81393604749474B1A6F7B681B6CC3F380
:102790000B0313430B677B681B6803F01003002BCC
:1027A00004D0414A7B6893F8583013607B681B68FB
:1027B00003F08003002B0AD03A493A4BD3F8943007
:1027C00023F440027B68DB6C1343C1F894307B68D0
:1027D0001B6803F04003002B0AD03249314BD3F879
:1027E000943023F080627B689B6C1343C1F8943073
:1027F0007B681B6803F48073002B11D02949294B97
:10280000D3F8943023F000627B685B6D1343C1F80A
:1028100094307B685B6DB3F1006F01D10123BB6223
:102820007B681B6803F40073002B0AD01D491D4B05
:10283000D3F8943023F080527B685B6C1343C1F86B
:1028400094307B681B6803F48063002B11D015491A
:10285000144BD3F8943023F000527B681B6D134364
:10286000C1F894307B681B6DB3F1005F01D1012387
:10287000FB62FB6A012B05D07B681B68B3F5006F18
:1028800040F0FF80094B00221A60FDF7FFFE7862DE
:102890000EE0FDF7FBFE02467B6AD31A022B07D936
:1028A000032388E100380240E011474268004742B4
:1028B0007E4B1B6803F00063002BEAD17B681B682A
:1028C00003F00103002B03D07B689B6B002B09D026
:1028D0007B681B6803F00203002B28D07B68DB6B4E
:1028E000002B24D1714BD3F884301B0C03F003036D
:1028F00001335B00FB616D4BD3F884301B0E03F09A
:102900000F03BB6169497B685A687B689B689B01C0
:102910001A43FB695B08013B1B041A43BB691B0696
:102920001A437B685B691B071343C1F884307B68DB
:102930001B6803F00403002B04D07B681B6BB3F50A
:10294000801F0AD07B681B6803F00803002B35D07A
:102950007B685B6BB3F5800F30D1544BD3F8843078
:102960001B0C03F0030301335B00FB614F4BD3F8F7
:1029700084301B0F03F007037B614C497B685A6866
:102980007B689B689B011A43FB695B08013B1B0446
:102990001A437B681B691B061A437B691B07134399
:1029A000C1F884304149414BD3F88C3023F01F02E9
:1029B0007B689B6A013B1343C1F88C307B681B68C2
:1029C00003F48063002B29D07B681B6DB3F1005F9B
:1029D00024D1364BD3F884301B0C03F003030133AE
:1029E0005B00BB61314BD3F884301B0F03F007034E
:1029F0007B612E497B685A687B689B689B011A4300
:102A00007B68DB685B08013B1B041A43BB691B0640
:102A10001A437B691B071343C1F884307B681B682A
:102A200003F40063002B16D020497B685A687B684A
:102A30009B689B011A437B68DB685B08013B1B04B6
:102A40001A437B681B691B061A437B685B691B077B
:102A50001343C1F88430164B01221A60FDF716FEAD
:102A6000786208E0FDF712FE02467B6AD31A022B59
:102A700001D903239FE00D4B1B6803F00063002B7B
:102A8000F0D0BB6A012B40F095800A4B00221A60FF
:102A9000FDF7FCFD78620FE0FDF7F8FD02467B6A6A
:102AA000D31A022B08D9032385E000BF0038024067
:102AB0006800474270004742414B1B6803F00053D7
:102AC000B3F1005FE8D07B681B6803F00403002BC0
:102AD00003D07B681B6B002B09D07B681B6803F05D
:102AE0000803002B2BD07B685B6B002B27D1344B6A
:102AF000D3F888301B0C03F0030301335B003B6108
:102B00002F497B689A697B68DB699B011A433B69A3
:102B10005B08013B1B041A437B685B6A1B0613437B
:102B2000C1F888302649264BD3F88C3023F4F8526C
:102B30007B68DB6A013B1B021343C1F88C307B6866
:102B40001B6803F48073002B1DD07B685B6DB3F1B1
:102B5000006F18D11A4BD3F888301B0E03F00F0307
:102B6000FB6017497B689A697B68DB699B011A43A4
:102B70007B681B6A5B08013B1B041A43FB681B064E
:102B80001343C1F888300F4B01221A60FDF77EFD18
:102B9000786208E0FDF77AFD02467B6AD31A022BC1
:102BA00001D9032307E0064B1B6803F00053B3F180
:102BB000005FEFD1002318463037BD4680BD00BF0F
:102BC00000380240700047422DE9F04F91B000AF4D
:102BD00000237B630023FB6300233B630023FB6232
:102BE0000023BB639E4B9B6803F00C030C2B00F28D
:102BF0002D8101A252F823F02D2C00084D2E000843
:102C00004D2E00084D2E0008332C00084D2E0008D4
:102C10004D2E00084D2E0008392C00084D2E0008BE
:102C20004D2E00084D2E00084F2D00088D4BBB6324
:102C30000FE18D4BBB630CE1894B5B6803F03F03F5
:102C40007B63874B5B6803F48003002B23D0844BAA
:102C50005B689B094FF0000440F2FF114FF0000247
:102C600003EA010304EA02047F4A02FB04F10022A2
:102C700002FB03F20A447C49A3FB010153181946E5
:102C80007B6B4FF000041A462346FDF711FB034609
:102C90000C46FB634DE0724B5B689B094FF00004F0
:102CA00040F2FF114FF0000201EA030102EA0402C0
:102CB0000B46144660017862786A40EAD360786215
:102CC0005B013B62D7E908345B1A64EB02044FEA0C
:102CD000841949EA93694FEA8318B8EB030869EB52
:102CE00004094FEAC903FB61FB6943EA5873FB61BE
:102CF0004FEAC803BB61D7E9068918EB010849EB25
:102D000002094FEA89237B617B6943EA98537B611F
:102D10004FEA88233B61D7E90489404649467B6BEB
:102D20004FF000041A462346FDF7C2FA03460C464C
:102D3000FB634B4B5B681B0C03F0030301335B002D
:102D40003B63FA6B3B6BB2FBF3F3BB6381E0444B39
:102D50005B6803F03F037B63414B5B6803F48003D4
:102D6000002B23D03E4B5B689B094FF0000440F2E0
:102D7000FF114FF0000203EA010304EA02043A4A99
:102D800002FB04F1002202FB03F20A443649A3FBD2
:102D90000101531819467B6B4FF000041A46234675
:102DA000FDF786FA03460C46FB6343E02C4B5B6859
:102DB0009B094FF0000440F2FF114FF0000201EABE
:102DC000030102EA04020B4614466001F860F86849
:102DD00040EAD360F8605B01BB60D7E902345B1A5C
:102DE00064EB0204A60146EA93669D01ED1A66EBC8
:102DF0000406F3007B607B6843EA55737B60EB005D
:102E00003B6097E860006D1846EB02064FEA862BA0
:102E10004BEA955B4FEA852A55465E462846314681
:102E20007B6B4FF000041A462346FDF741FA034638
:102E30000C46FB630A4B5B681B0F03F00703FB6246
:102E4000FA6BFB6AB2FBF3F3BB6302E0054BBB63B7
:102E500000BFBB6B18464437BD46BDE8F08F00BFCE
:102E6000003802400024F40040787D0180B586B02F
:102E700000AF786000233B617B681B6803F00103AF
:102E8000002B00F08380954B9B6803F00C03042B10
:102E900019D0924B9B6803F00C03082B06D18F4B83
:102EA0005B6803F48003B3F5800F0CD08B4B9B68F9
:102EB00003F00C030C2B12D1884B5B6803F48003E6
:102EC000B3F5800F0BD1854B1B6803F40033002B47
:102ED0005BD07B685B68002B57D1012316E27B68CF
:102EE0005B68B3F5803F06D17C4A7C4B1B6843F49A
:102EF000803313601DE07B685B68B3F5A02F0CD1B5
:102F0000764A764B1B6843F480231360734A734BF5
:102F10001B6843F4803313600BE0704A6F4B1B68EF
:102F200023F4803313606D4A6C4B1B6823F48023B9
:102F300013607B685B68002B13D0FDF7A7FB38613B
:102F400008E0FDF7A3FB02463B69D31A642B01D9C5
:102F50000323DBE1614B1B6803F40033002BF0D04B
:102F600014E0FDF793FB386108E0FDF78FFB0246A4
:102F70003B69D31A642B01D90323C7E1574B1B6864
:102F800003F40033002BF0D100E000BF7B681B6826
:102F900003F00203002B6FD0504B9B6803F00C032F
:102FA000002B17D04D4B9B6803F00C03082B05D169
:102FB0004A4B5B6803F48003002B0BD0474B9B68A4
:102FC00003F00C030C2B1CD1444B5B6803F480030F
:102FD000002B16D1414B1B6803F00203002B05D0D8
:102FE0007B68DB68012B01D001238FE13B493B4B20
:102FF0001B6823F0F8027B681B69DB0013430B603E
:103000003AE07B68DB68002B20D0354B01221A6048
:10301000FDF73CFB386108E0FDF738FB02463B69F1
:10302000D31A022B01D9032370E12C4B1B6803F048
:103030000203002BF0D02949284B1B6823F0F8022B
:103040007B681B69DB0013430B6015E0244B0022F7
:103050001A60FDF71BFB386108E0FDF717FB02461D
:103060003B69D31A022B01D903234FE11B4B1B6889
:1030700003F00203002BF0D17B681B6803F0080308
:10308000002B37D07B685B69002B16D0154B0122D3
:103090001A60FDF7FBFA386108E0FDF7F7FA02461F
:1030A0003B69D31A022B01D903232FE10B4B5B6F32
:1030B00003F00203002BF0D01CE00A4B00221A6040
:1030C000FDF7E4FA38610FE0FDF7E0FA02463B69EC
:1030D000D31A022B08D9032318E100BF003802409D
:1030E00000004742800E47428A4B5B6F03F00203A9
:1030F000002BE9D17B681B6803F00403002B00F070
:1031000097800023FB75834B1B6C03F08053002BCF
:103110000FD10023FB607F4A7E4B1B6C43F0805332
:1031200013647C4B1B6C03F08053FB60FB68012332
:10313000FB75794B1B6803F48073002B18D1764A1A
:10314000754B1B6843F480731360FDF79FFA386179
:1031500008E0FDF79BFA02463B69D31A022B01D91E
:103160000323D3E06C4B1B6803F48073002BF0D077
:103170007B689B68012B06D1664A664B1B6F43F048
:10318000010313671CE07B689B68052B0CD1614A27
:10319000604B1B6F43F0040313675E4A5D4B1B6F6C
:1031A00043F0010313670BE05A4A5A4B1B6F23F09D
:1031B00001031367574A574B1B6F23F00403136730
:1031C0007B689B68002B15D0FDF760FA38610AE038
:1031D000FDF75CFA02463B69D31A41F2883293420A
:1031E00001D9032392E04B4B1B6F03F00203002B2A
:1031F000EED014E0FDF74AFA38610AE0FDF746FA2E
:1032000002463B69D31A41F28832934201D9032323
:103210007CE0404B1B6F03F00203002BEED1FB7DE3
:10322000012B05D13B4A3B4B1B6C23F080531364AD
:103230007B689B69002B68D0364B9B6803F00C03BE
:10324000082B60D07B689B69022B45D1334B002251
:103250001A60FDF71BFA386108E0FDF717FA02461D
:103260003B69D31A022B01D903234FE0294B1B687A
:1032700003F00073002BF0D126497B68DA697B6884
:103280001B6A1A437B685B6A9B011A437B689B6AD3
:103290005B08013B1B041A437B68DB6A1B061A436D
:1032A0007B681B6B1B0713434B601C4B01221A608E
:1032B000FDF7ECF9386108E0FDF7E8F902463B69F3
:1032C000D31A022B01D9032320E0124B1B6803F011
:1032D0000073002BF0D018E0104B00221A60FDF7AD
:1032E000D5F9386108E0FDF7D1F902463B69D31AF8
:1032F000022B01D9032309E0064B1B6803F000737E
:10330000002BF0D101E0012300E00023184618371C
:10331000BD4680BD0038024000700040600047425A
:1033200080B582B000AF78607B68002B01D10123AB
:103330001DE07B6893F83430DBB2002B05D17B684D
:1033400000221A77786803F00BFD7B68032283F86C
:103350003420786800F010F87B6800229A637B685C
:1033600000221A637B68012283F834200023184668
:103370000837BD4680BD0000B0B58EB004AF7860A0
:1033800000237B620023FB6000233B6100237B6101
:103390000023BB610023FB6176233B627B681D68D1
:1033A0006C4607F1180393E8070084E8070007F16B
:1033B0000C030ECB284602F0FBF91C4B00221A60CE
:1033C0007B681B68184602F03CFA184B01221A6011
:1033D0000220FDF767F9786800F0B7FD78627B6A34
:1033E000002B0BD07B68012283F834207B689A6B1A
:1033F0007B6A1A437B689A63012313E0786800F0C4
:10340000DBFC78627B6A002B0BD07B68012283F89F
:1034100034207B689A6B7B6A1A437B689A6301232A
:1034200000E0002318462837BD46B0BDA0802542E5
:1034300080B584B000AF78600023FB607B681B68B8
:103440005B6B03F48073002B00F08B807B681B6840
:103450004FF480729A637B681B687A681268D26B3B
:1034600022F49D72DA637B681B6B03F00803002B68
:103470003AD07B681B6B03F00203002B05D17B68FD
:103480001B6B03F02003002B11D07B681B681846D0
:1034900002F090FAF860FB68002B08D07B689A6B0A
:1034A000FB681A437B689A63786800F029F97B68A7
:1034B0001B6840F2FF529A637B68012283F8342034
:1034C0007B681B6B03F00103002B05D17B681B6B32
:1034D00003F00203002B03D0786800F007F9F3E053
:1034E000786800F0F9F8EFE07B681B6B03F080036D
:1034F000002B00F0E9807B681B6B03F02003002B9E
:1035000011D07B681B68184602F054FAF860FB681B
:10351000002B08D07B689A6BFB681A437B689A6320
:10352000786800F0EDF87B681B6B03F00103002B5B
:1035300040F0CA807B681B6B03F00203002B40F055
:10354000C3807B681B687A681268D26A22F008021E
:10355000DA627B68012283F83420786800F0BCF8D6
:10356000B2E07B681B685B6B03F48043002B08D0E0
:103570007B681B684FF480429A63786800F041FFD3
:10358000A2E07B681B685B6B03F40043002B08D050
:103590007B681B684FF400429A63786800F009FF6B
:1035A00092E07B681B685B6B03F03A03002B00F032
:1035B0008B807B681B685B6B03F00203002B05D0DC
:1035C0007B689B6B43F002027B689A637B681B6895
:1035D0005B6B03F00803002B05D07B689B6B43F00B
:1035E00008027B689A637B681B685B6B03F02003AF
:1035F000002B05D07B689B6B43F020027B689A63AD
:103600007B681B685B6B03F01003002B05D07B68A5
:103610009B6B43F010027B689A637B681B6840F2E7
:10362000FF529A637B681B687A681268D26B22F437
:103630009D72DA637B681B6B03F08003002B36D02E
:103640007B681B6C002B11D07B681B6C204A1A65B1
:103650007B681B6C1846FEF7F1F90346002B33D04C
:103660007B681B6C184600F02BFB2DE07B68DB6B46
:10367000002B11D07B68DB6B164A1A657B68DB6B0D
:103680001846FEF7DBF90346002B1DD07B68DB6B89
:10369000184600F053FB17E07B6800229A637B68B2
:1036A000012283F83420786800F034F80CE07B685D
:1036B0001B6B03F00803002B06D07B68012283F804
:1036C0003420786800F01CF800BF1037BD4680BD7C
:1036D000C13C00083D3D000880B483B000AF786075
:1036E00000BF0C37BD465DF8047B704780B483B0E3
:1036F00000AF786000BF0C37BD465DF8047B7047B3
:1037000080B483B000AF786000BF0C37BD465DF871
:10371000047B704780B483B000AF786000BF0C3783
:10372000BD465DF8047B704790B484B000AF78600C
:1037300039600023FB607B685B6E1B0EFB60FB68DF
:103740009B09DBB203F00303DAB23B681A70FB6833
:103750009B08DBB203F00F03DAB23B685A70FB68D8
:10376000DBB203F00303DAB23B689A707B685B6EEE
:103770001B0CDBB2FB60FB68DAB23B68DA707B687B
:103780005B6E1B0ADBB2FB60FB68DAB23B681A7146
:103790007B685B6EDBB2FB60FB68DAB23B685A7138
:1037A0007B689B6E1B0EFB60FB689BB21B019AB291
:1037B0003B68DA807B689B6E1B0CDBB2FB603B686E
:1037C000DB889AB2FB681B099BB203F00F039BB224
:1037D00013439AB23B68DA80FB68DBB203F00F0355
:1037E000DAB23B681A727B689B6E1B0ADBB2FB6025
:1037F000FB68DB09DBB203F00103DAB23B685A7203
:10380000FB689B09DBB203F00103DAB23B689A72F2
:10381000FB685B09DBB203F00103DAB23B68DA72E2
:10382000FB681B09DBB203F00103DAB23B681A73D1
:103830003B6800225A737B685B6C002B40F08680EB
:10384000FB689B0203F440623B681A617B689B6ED5
:10385000DBB2FB603B681A69FB689B001A433B685C
:103860001A617B68DB6E1B0EDBB2FB603B681A697A
:10387000FB689B0903F003031A433B681A61FB686A
:10388000DB08DBB203F00703DAB23B681A75FB68AA
:10389000DBB203F00703DAB23B685A757B68DB6E74
:1038A0001B0CDBB2FB60FB685B09DBB203F00703B8
:1038B000DAB23B689A75FB689B08DBB203F007033A
:1038C000DAB23B68DA75FB68DBB25B00DBB203F0AF
:1038D0000603DAB23B681A767B68DB6E1B0ADBB242
:1038E000FB603B681B7EDAB2FB68DB09DBB203F0EE
:1038F0000103DBB21343DAB23B681A763B681B69FB
:103900005A1C7B685A653B681B7EDBB2023301227E
:103910009A407B685B6D02FB03F27B685A653B68EB
:103920001B7ADBB21A46012303FA02F27B689A651E
:103930007B685B6D7A68926D520A02FB03F27B68CA
:10394000DA657B684FF400721A6651E07B685B6C45
:10395000012B3CD17B689B6EDBB2FB60FB681B04D8
:1039600003F47C123B681A617B68DB6E1B0EDBB2D2
:10397000FB603B681A69FB681B021A433B681A61CB
:103980007B68DB6E1B0CDBB2FB603B681A69FB6873
:103990001A433B681A617B68DB6E1B0ADBB2FB6073
:1039A0003B681B694FF00004013344F100049A02A4
:1039B0007B685A657B685A6D7B68DA657B684FF473
:1039C00000729A657B689A6D7B681A6610E07B6866
:1039D0001B6840F2FF529A637B689B6B43F08052F6
:1039E0007B689A637B68012283F834200123C1E05D
:1039F000FB689B09DBB203F00103DAB23B685A763D
:103A0000FB68DBB25B00DBB203F07E03DAB23B683B
:103A10009A767B68DB6EDBB2FB603B689B7EDAB23A
:103A2000FB68DB09DBB203F00103DBB21343DAB25C
:103A30003B689A76FB68DBB203F07F03DAB23B683F
:103A4000DA767B681B6F1B0EDBB2FB60FB68DB0961
:103A5000DBB203F00103DAB23B681A77FB685B095B
:103A6000DBB203F00303DAB23B685A77FB689B08CA
:103A7000DBB203F00703DAB23B689A77FB68DBB28C
:103A80009B00DBB203F00C03DAB23B68DA777B68A9
:103A90001B6F1B0CDBB2FB603B68DB7FDAB2FB68A1
:103AA0009B09DBB203F00303DBB21343DAB23B68DA
:103AB000DA77FB685B09DBB203F00103DAB23B683B
:103AC00083F820203B68002283F82120FB68DBB2CA
:103AD00003F00103DAB23B6883F822207B681B6F96
:103AE0001B0ADBB2FB60FB68DB09DBB203F00103FE
:103AF000DAB23B6883F82320FB689B09DBB203F052
:103B00000103DAB23B6883F82420FB685B09DBB26F
:103B100003F00103DAB23B6883F82520FB681B0938
:103B2000DBB203F00103DAB23B6883F82620FB68BE
:103B30009B08DBB203F00303DAB23B6883F827206B
:103B4000FB68DBB203F00303DAB23B6883F828209A
:103B50007B681B6FDBB2FB60FB685B08DBB203F0CA
:103B60007F03DAB23B6883F829203B68012283F89F
:103B70002A20002318461037BD4690BC7047B0B5C8
:103B80008EB004AF7860396000237B627B680322CB
:103B900083F834207B685B6C032B2ED03B68B3F535
:103BA000805F06D17B689B6B43F080527B689A6391
:103BB00029E03B68B3F5006F0AD1786800F097FA06
:103BC00078627B689A6B7B6A1A437B689A631AE017
:103BD0003B68002B0AD1786800F0D6FA78627B68DF
:103BE0009A6B7B6A1A437B689A630CE07B689B6BD9
:103BF00043F000627B689A6305E07B689B6B43F04F
:103C000080527B689A637B689B6B002B0AD07B6831
:103C10001B6840F2FF529A637B68012283F83420CC
:103C2000012324E07B685B68FB607B689B683B61E9
:103C30007B68DB687B613B68BB617B685B69FB61C0
:103C40007B689B693B627B681D686C4607F11803C3
:103C500093E8070084E8070007F10C030ECB284621
:103C600001F0A6FD7B68012283F83420002318466A
:103C70002837BD46B0BD80B586B000AF786004235C
:103C8000FB7500233B610023FB6007F10C03194621
:103C9000786800F002FA38613B69002B05D07B6838
:103CA0009A6B3B691A437B689A63FB685B0ADBB2D9
:103CB00003F00F03FB75FB7D18461837BD4680BD2A
:103CC00080B584B000AF78607B689B6BFB60FB685D
:103CD0001B6C002B02D0FB6800221A64FB68DB6BB4
:103CE000002B27D1F868FFF7C6FF0346FB72FB687D
:103CF00000229A63FB68012283F83420FB7A062BAA
:103D000002D0FB7A052B15D1FB681B68184601F021
:103D100051FE0246FB689B6B1A43FB689A63FB6883
:103D20009B6B002B03D0F868FFF7F4FC02E0F86807
:103D3000FFF7E6FC00BF1037BD4680BD80B584B0FC
:103D400000AF78607B689B6BFB60FB68DB6B002BD4
:103D500002D0FB680022DA63FB681B6C002B27D1C2
:103D6000F868FFF788FF0346FB72FB6800229A633E
:103D7000FB68012283F83420FB7A062B02D0FB7A01
:103D8000052B15D1FB681B68184601F013FE02468F
:103D9000FB689B6B1A43FB689A63FB689B6B002B69
:103DA00003D0F868FFF7B6FC02E0F868FFF7A8FC5C
:103DB00000BF1037BD4680BDB0B594B004AF786089
:103DC0000023FB630123FB817B681B68184601F01D
:103DD00046FD0346002B02D14FF08063B1E07B68C3
:103DE0005B6C032B2FD07B681B68184601F0FCFE30
:103DF000F863FB6B002B01D0FB6BA2E07B681B68B8
:103E00000021184601F070FD02467B685A677B6806
:103E10001B680421184601F067FD02467B689A671B
:103E20007B681B680821184601F05EFD02467B682E
:103E3000DA677B681B680C21184601F055FD0246C5
:103E40007B68C3F880207B685B6C032B0DD07B689C
:103E50001B6807F10E021146184601F006FFF863D1
:103E6000FB6B002B01D0FB6B6BE07B685B6C032B67
:103E700036D0FB891A467B681A657B681A687B68AE
:103E80001B6D1B041946104601F0CEFEF863FB6B58
:103E9000002B01D0FB6B54E07B681B6800211846A7
:103EA00001F022FD02467B685A667B681B6804218C
:103EB000184601F019FD02467B689A667B681B680C
:103EC0000821184601F010FD02467B68DA667B681F
:103ED0001B680C21184601F007FD02467B681A6733
:103EE0007B681B680421184601F0FEFC03461A0D8E
:103EF0007B68DA6407F1100319467868FFF714FC51
:103F00007B6819687B681B6D1B044FF000041A4620
:103F10002346084601F072FDF863FB6B002B01D0CD
:103F2000FB6B0EE07B681D687B686C4603F110023A
:103F300007CA84E8070004330ECB284601F038FC9A
:103F4000002318464037BD46B0BD80B586B000AFEF
:103F500078600023BB6000237B6100233B6100236A
:103F6000FB607B681B68184601F06DFDF860FB681C
:103F7000002B01D0FB688CE07B681B68184601F0C1
:103F800082FDF860FB68002B3DD07B6800229A64BC
:103F900032E0BB685A1CBA604FF6FF72934202D1FE
:103FA0004FF0807375E07B681B680021184601F0B4
:103FB0008BFDF860FB68002B02D04FF0805368E067
:103FC0007B681B680021184601F0A2FDF860FB68C1
:103FD000002B02D04FF080535BE07B681B68002110
:103FE000184601F081FC78617B69DB0F012B01D160
:103FF000012300E000233B613B69002BC9D07B68B3
:1040000000225A6444E07B6801229A6431E0BB6874
:104010005A1CBA604FF6FF72934202D14FF0807380
:1040200037E07B681B680021184601F04DFDF86001
:10403000FB68002B01D0FB682BE07B681B684FF00E
:104040008041184601F064FDF860FB68002B01D048
:10405000FB681EE07B681B680021184601F044FCE9
:1040600078617B69DB0F012B01D1012300E0002384
:104070003B613B69002BCAD07B6903F08043002B76
:1040800003D07B6801225A6402E07B6800225A64F4
:10409000002318461837BD4680BD80B584B000AFF8
:1040A000786039600023FB603B68002B02D14FF041
:1040B000006318E07B681A687B681B6D1B04194657
:1040C000104601F0F5FDF860FB68002B01D0FB689D
:1040D00009E07B681B680021184601F005FC0246D8
:1040E0003B681A60002318461037BD4680BD80B576
:1040F00086B000AF78600023FB6000233B610023A3
:104100007B617B681B680021184601F0EDFB0346CC
:1041100003F00073B3F1007F02D14FF400632FE08E
:1041200007F10C031946786800F07BF878617B6929
:10413000002B01D07B6923E03B6903F48023002B33
:104140001CD07B681A687B681B6D1B0419461046DF
:1041500001F0BAFC78617B69002B01D07B690FE02C
:104160007B681B680221184601F0F7FC78617B69C7
:10417000002B01D07B6903E0002301E04FF0806356
:1041800018461837BD4680BD80B586B000AF786050
:104190000023FB6000233B6100237B617B681B687D
:1041A0000021184601F0A0FB034603F00073B3F1B1
:1041B000007F02D14FF400632FE007F10C03194692
:1041C000786800F02EF878617B69002B01D07B695C
:1041D00023E03B6903F48033002B1CD07B681A6812
:1041E0007B681B6D1B041946104601F06DFC78615D
:1041F0007B69002B01D07B690FE07B681B68002185
:10420000184601F0AAFC78617B69002B01D07B691C
:1042100003E0002301E04FF0806318461837BD46E5
:1042200080BD90B58FB000AF7860396000233B63EC
:10423000FCF72CFAF86200237B630023FB60002369
:104240003B617B681B680821184601F08EFB3863D0
:104250003B6B002B01D03B6BA7E07B681A687B6847
:104260001B6D1B041946104601F02EFC38633B6B96
:10427000002B01D03B6B98E04FF0FF337B610823AC
:10428000BB613023FB6102233B6200237B6201237D
:10429000BB627B681B6807F114021146184601F0E7
:1042A00038FB7B681B68184601F07BFC38633B6B6E
:1042B000002B22D03B6B78E07B681B685B6B03F4C0
:1042C0000013002B0ED07B6B9B0007F10C02D4185F
:1042D0007B681B68184601F096FA034623607B6BE7
:1042E00001337B63FCF7D2F90246FB6AD31AB3F1C0
:1042F000FF3F02D14FF0004357E07B681B685A6BC9
:1043000040F22A431340002BD6D07B681B685B6BBE
:1043100003F00803002B05D07B681B6808229A6312
:10432000082342E07B681B685B6B03F00203002BF1
:1043300005D07B681B6802229A63022335E07B6804
:104340001B685B6B03F02003002B05D07B681B68A8
:1043500020229A63202328E07B681B6840F2FF52EA
:104360009A633B680433FA681106FA68120202F491
:104370007F021143FA68120A02F47F421143FA687D
:10438000120E0A431A603B691A063B691B0203F4CA
:104390007F031A433B691B0A03F47F431A433B69BB
:1043A0001B0E1A433B681A60002318463C37BD4673
:1043B00090BD90B585B000AF78600023FB607B684E
:1043C0009B6ABB600023FB600DE0FB689B00BA6842
:1043D000D4187B681B68184601F015FA0346236061
:1043E000FB680133FB60FB68072BEED97B689B6A97
:1043F00003F120027B689A62002318461437BD46F9
:1044000090BD80B584B000AF78600023FB607B680E
:104410001B6ABB600023FB600BE07B681868FB68CD
:104420009B00BA681344194601F0FAF9FB6801339E
:10443000FB60FB68072BF0D97B681B6A03F1200245
:104440007B681A62002318461037BD4680BD80B5D0
:1044500082B000AF78607B68002B01D101231DE0A2
:104460007B6893F83930DBB2002B06D17B680022E1
:1044700083F83820786802F023FF7B68022283F8F3
:1044800039207B681A687B6804331946104600F0AF
:1044900039FA7B68012283F839200023184608374F
:1044A000BD4680BD80B483B000AF78607B681B6878
:1044B0007A681268D26842F00102DA607B681B6891
:1044C0007A681268126842F001021A6000231846E6
:1044D0000C37BD465DF8047B704780B582B000AFF5
:1044E00078607B681B681B6903F00203022B22D1F2
:1044F0007B681B68DB6803F00203022B1BD17B681F
:104500001B686FF002021A617B6801221A767B68D1
:104510001B689B6903F00303002B03D0786800F04D
:10452000D3F905E0786800F0C5F9786800F0D6F9AD
:104530007B6800221A767B681B681B6903F0040302
:10454000042B22D17B681B68DB6803F00403042B77
:104550001BD17B681B686FF004021A617B68022222
:104560001A767B681B689B6903F44073002B03D0A9
:10457000786800F0A9F905E0786800F09BF97868A0
:1045800000F0ACF97B6800221A767B681B681B6917
:1045900003F00803082B22D17B681B68DB6803F05B
:1045A0000803082B1BD17B681B686FF008021A6197
:1045B0007B6804221A767B681B68DB6903F00303BF
:1045C000002B03D0786800F07FF905E0786800F0F0
:1045D00071F9786800F082F97B6800221A767B68AE
:1045E0001B681B6903F01003102B22D17B681B682A
:1045F000DB6803F01003102B1BD17B681B686FF086
:1046000010021A617B6808221A767B681B68DB69D6
:1046100003F44073002B03D0786800F055F905E0EF
:10462000786800F047F9786800F058F97B68002254
:104630001A767B681B681B6903F00103012B0ED1FE
:104640007B681B68DB6803F00103012B07D17B68E3
:104650001B686FF001021A61786800F021F97B682D
:104660001B681B6903F08003802B0ED17B681B68DD
:10467000DB6803F08003802B07D17B681B686FF039
:1046800080021A61786800F0DFFA7B681B681B699A
:1046900003F04003402B0ED17B681B68DB6803F0FE
:1046A0004003402B07D17B681B686FF040021A6102
:1046B000786800F01DF97B681B681B6903F0200314
:1046C000202B0ED17B681B68DB6803F02003202BB6
:1046D00007D17B681B686FF020021A61786800F0D0
:1046E000A9FA00BF0837BD4680BD80B584B000AFD1
:1046F000786039600023FB607B6893F83830012BC9
:1047000001D10223C8E07B68012283F838207B684E
:10471000022283F839207B681B689B68FB60FB687A
:1047200023F07703FB60FB6823F47F43FB607B6827
:104730001B68FA689A603B681B68402B77D0402B57
:104740000ED8102B00F08A80102B02D8002B7ED0C0
:1047500099E0202B00F08980302B00F08D8092E0D2
:10476000702B16D0702B04D8502B40D0602B4ED01D
:1047700089E0B3F5805F03D0B3F5005F24D082E019
:104780007B681B687A681268926822F007029A6058
:1047900079E07B6818683B6899683B685A683B68B1
:1047A000DB6800F0E0F97B681B689B68FB60FB68D6
:1047B00023F07703FB60FB6843F07703FB607B68C3
:1047C0001B68FA689A605EE07B6818683B689968C5
:1047D0003B685A683B68DB6800F0C5F97B681B687A
:1047E0007A681268926842F480429A604BE07B6873
:1047F00018683B6859683B68DB681A4600F02CF97A
:104800007B681B685021184600F08DF93BE07B68FF
:1048100018683B6859683B68DB681A4600F04FF936
:104820007B681B686021184600F07DF92BE07B68EF
:1048300018683B6859683B68DB681A4600F00CF959
:104840007B681B684021184600F06DF91BE07B680F
:104850001B680021184600F066F914E07B681B68AD
:104860001021184600F05FF90DE07B681B682021DD
:10487000184600F058F906E07B681B68302118469E
:1048800000F051F900BF7B68012283F839207B6872
:10489000002283F83820002318461037BD4680BD1B
:1048A00080B483B000AF786000BF0C37BD465DF8C0
:1048B000047B704780B483B000AF786000BF0C37D2
:1048C000BD465DF8047B704780B483B000AF78606C
:1048D00000BF0C37BD465DF8047B704780B483B0E1
:1048E00000AF786000BF0C37BD465DF8047B7047B1
:1048F00080B483B000AF786000BF0C37BD465DF870
:10490000047B704780B485B000AF786039600023C5
:10491000FB607B681B68FB607B68444A934213D052
:104920007B68B3F1804F0FD07B68414A93420BD034
:104930007B68404A934207D07B683F4A934203D04A
:104940007B683E4A934201D1012300E00023002B03
:1049500008D0FB6823F07003FB603B685B68FA6873
:104960001343FB607B68314A93422BD07B68B3F1E1
:10497000804F27D07B682E4A934223D07B682D4AF4
:1049800093421FD07B682C4A93421BD07B682B4AF2
:10499000934217D07B682A4A934213D07B68294AF6
:1049A00093420FD07B68284A93420BD07B68274AFA
:1049B000934207D07B68264A934203D07B68254AFE
:1049C000934201D1012300E00023002B08D0FB68B3
:1049D00023F44073FB603B68DB68FA681343FB60B9
:1049E0007B68FA681A603B689A687B68DA623B68A1
:1049F0001A687B689A627B680C4A934203D07B6892
:104A00000E4A934201D1012300E00023002B03D082
:104A10003B681A697B681A637B6801225A6100BF90
:104A20001437BD465DF8047B704700BF00000140AD
:104A30000004004000080040000C00400004014059
:104A4000004001400044014000480140001800407F
:104A5000001C00400020004080B487B000AFF86028
:104A6000B9607A6000237B6100233B61FB681B6AAD
:104A70003B61FB681B6A23F00102FB681A62FB685A
:104A80009B697B617B6923F0F0037B617B681B0181
:104A90007A6913437B613B6923F00A033B613A69FE
:104AA000BB6813433B61FB687A699A61FB683A69AA
:104AB0001A6200BF1C37BD465DF8047B704780B4A6
:104AC00087B000AFF860B9607A6000237B61002393
:104AD0003B61FB681B6A23F01002FB681A62FB68EB
:104AE0009B697B61FB681B6A3B617B6923F47043B4
:104AF0007B617B681B037A6913437B613B6923F00D
:104B0000A0033B61BB681B013A6913433B61FB682F
:104B10007A699A61FB683A691A6200BF1C37BD4620
:104B20005DF8047B704780B485B000AF78600B46B9
:104B30007B800023FB607B689B68FB60FB6823F045
:104B40007003FB607B8843F007039BB21A46FB6847
:104B50001343FB607B68FA689A6000BF1437BD4658
:104B60005DF8047B704780B487B000AFF860B9602F
:104B70007A603B6000237B61FB689B687B617B699B
:104B800023F47F437B613B681A027B681A43BB684E
:104B900013437A6913437B61FB687A699A6000BFAB
:104BA0001C37BD465DF8047B704780B483B000AF0E
:104BB000786039607B6893F83830012B01D102238B
:104BC00032E07B68012283F838207B68022283F878
:104BD00039207B681B687A681268526822F070027C
:104BE0005A607B681B687A68126851683A68126874
:104BF0000A435A607B681B687A681268926822F0E0
:104C000080029A607B681B687A68126891683A68CB
:104C100052680A439A607B68012283F839207B68D6
:104C2000002283F83820002318460C37BD465DF873
:104C3000047B704780B483B000AF786000BF0C374E
:104C4000BD465DF8047B704780B483B000AF7860E8
:104C500000BF0C37BD465DF8047B704780B582B05D
:104C600000AF78607B68002B01D101233FE07B68B7
:104C700093F83930DBB2002B06D17B68002283F831
:104C80003820786802F0D2FB7B68242283F8392030
:104C90007B681B687A681268D26822F40052DA6076
:104CA000786800F069FB7B681B687A681268126993
:104CB00022F490421A617B681B687A681268526914
:104CC00022F02A025A617B681B687A681268D268EF
:104CD00042F40052DA607B680022DA637B682022AB
:104CE00083F839207B68202283F83A200023184675
:104CF0000837BD4680BD000080B586B000AFF860C3
:104D0000B9601346FB80FB6893F83930DBB2202B87
:104D100053D1BB68002B02D0FB88002B01D10123AB
:104D20004CE0FB6893F83830012B01D1022345E0B9
:104D3000FB68012283F83820BA68FB681A62FB68B6
:104D4000FA889A84FB68FA88DA84FB680022DA63BE
:104D5000FB68212283F83920FB681B6B194ADA6350
:104D6000FB681B6B184A1A64FB681B6B174ADA64F2
:104D7000FB681B6B00221A6507F108037B61FB6867
:104D8000186B7B691968FB681B6804331A46FB883B
:104D9000FCF7F4FDFB681B686FF040021A60FB68CB
:104DA000002283F83820FB681B68FA681268526991
:104DB00042F080025A61002300E0022318461837AF
:104DC000BD4680BD195000086B5000088750000890
:104DD00080B588B000AF78607B681B681B68FB619A
:104DE0007B681B68DB68BB617B681B685B697B61F8
:104DF00000233B610023FB60FB6903F00F033B6171
:104E00003B69002B0DD1FB6903F02003002B08D078
:104E1000BB6903F02003002B03D0786800F032FA5E
:104E2000CCE03B69002B00F0AB807B6903F0010311
:104E3000002B05D1BB6903F49073002B00F0A08018
:104E4000FB6903F00103002B0AD0BB6903F48073F4
:104E5000002B05D07B68DB6B43F001027B68DA63D3
:104E6000FB6903F00403002B0AD07B6903F0010304
:104E7000002B05D07B68DB6B43F002027B68DA63B2
:104E8000FB6903F00203002B0AD07B6903F00103E6
:104E9000002B05D07B68DB6B43F004027B68DA6390
:104EA000FB6903F00803002B0AD07B6903F00103C0
:104EB000002B05D07B68DB6B43F008027B68DA636C
:104EC0007B68DB6B002B78D0FB6903F02003002BA1
:104ED00007D0BB6903F02003002B02D0786800F0F4
:104EE000D1F97B681B685B6903F04003002B14BF9A
:104EF00001230023DBB2FB607B68DB6B03F008035C
:104F0000002B02D1FB68002B31D0786800F01BF930
:104F10007B681B685B6903F04003002B23D07B6830
:104F20001B687A681268526922F040025A617B68F5
:104F30005B6B002B13D07B685B6B224A1A657B6826
:104F40005B6B1846FCF77AFD0346002B16D07B6896
:104F50005B6B1B6D7A68526B104698470EE0786861
:104F600000F050F80AE0786800F04CF806E0786845
:104F700000F048F87B680022DA631EE000BF1CE006
:104F8000FB6903F08003002B08D0BB6903F08003AA
:104F9000002B03D0786800F008F90FE0FB6903F0FC
:104FA0004003002B0AD0BB6903F04003002B05D05F
:104FB000786800F04FF900BF00E000BF2037BD4621
:104FC00080BD00BF8351000880B483B000AF78601B
:104FD00000BF0C37BD465DF8047B704780B483B0DA
:104FE00000AF786000BF0C37BD465DF8047B7047AA
:104FF00080B483B000AF786000BF0C37BD465DF869
:10500000047B704780B483B000AF786000BF0C377A
:10501000BD465DF8047B704780B584B000AF786012
:105020007B689B6BFB607B681B681B6803F4807369
:10503000002B13D1FB680022DA84FB681B68FA6836
:105040001268526922F080025A61FB681B68FA6894
:105050001268D26842F04002DA6002E0F868FFF7B6
:10506000B3FF00BF1037BD4680BD80B584B000AF30
:1050700078607B689B6BFB60F868FFF7AFFF00BF51
:105080001037BD4680BD80B584B000AF7860002386
:10509000FB607B689B6BBB60BB681B685B6903F054
:1050A0008003002B14BF01230023DBB2FB60BB682D
:1050B00093F83930DBB2212B08D1FB68002B05D0E7
:1050C000BB680022DA84B86800F027F8BB681B6868
:1050D0005B6903F04003002B14BF01230023DBB204
:1050E000FB60BB6893F83A30DBB2222B08D1FB6837
:1050F000002B05D0BB680022DA85B86800F023F8E1
:10510000BB68DB6B43F01002BB68DA63B868FFF77B
:1051100079FF00BF1037BD4680BD80B483B000AFBB
:1051200078607B681B687A681268D26822F0C002D7
:10513000DA607B68202283F8392000BF0C37BD4637
:105140005DF8047B704780B483B000AF78607B6803
:105150001B687A681268D26822F49072DA607B6801
:105160001B687A681268526922F001025A617B68F2
:10517000202283F83A2000BF0C37BD465DF8047B3F
:10518000704780B584B000AF78607B689B6BFB6034
:10519000FB680022DA85FB680022DA84F868FFF7F2
:1051A00031FF00BF1037BD4680BD80B485B000AF71
:1051B00078607B6893F83930DBB2212B43D17B6870
:1051C0009B68B3F5805F19D17B681B6AFB607B68C5
:1051D0001B68FA681288C2F308025A607B681B6970
:1051E000002B05D17B681B6A9A1C7B681A620EE053
:1051F0007B681B6A5A1C7B681A6208E07B681A6825
:105200007B681B6A581C796808621B7853607B684E
:10521000DB8C9BB2013B9BB27A681946D184002B90
:105220000FD17B681B687A681268D26822F080020E
:10523000DA607B681B687A681268D26842F04002C4
:10524000DA60002300E0022318461437BD465DF8FB
:10525000047B704780B582B000AF78607B681B68C4
:105260007A681268D26822F04002DA607B682022F5
:1052700083F839207868FFF7A7FE0023184608371F
:10528000BD4680BD80B584B000AF78607B6893F880
:105290003A30DBB2222B69D17B689B68B3F5805F23
:1052A00023D17B689B6AFB607B681B69002B0ED156
:1052B0007B681B685B689BB2C3F308039AB2FB6808
:1052C0001A807B689B6A9A1C7B689A6229E07B68DB
:1052D0001B685B689BB2DBB29AB2FB681A807B6882
:1052E0009B6A5A1C7B689A621BE07B681B69002BD7
:1052F0000AD17B689B6A591C7A6891627A68126845
:105300005268D2B21A700CE07B689B6A591C7A68AA
:1053100091627A6812685268D2B202F07F02D2B209
:105320001A707B68DB8D9BB2013B9BB27A68194691
:10533000D185002B18D17B681B687A681268D26807
:1053400022F49072DA607B681B687A68126852698E
:1053500022F001025A617B68202283F83A207868A3
:10536000FFF746FE002302E0002300E00223184678
:105370001037BD4680BD0000F0B585B000AF786045
:105380000023FB607B681B681B69FB60FB6823F4E0
:105390004053FB607B68DB68FA681343FB607B6803
:1053A0001B68FA681A617B681B68DB68FB60FB6836
:1053B00023F4164323F00C03FB607B689A687B6838
:1053C0001B691A437B685B691A437B68DB6913437B
:1053D000FA681343FB607B681B68FA68DA607B68D5
:1053E0001B685B69FB60FB6823F44073FB607B68B0
:1053F0009B69FA681343FB607B681B68FA685A6113
:105400007B68DB69B3F5004F40F0E4807B681B6884
:10541000AB4A934204D07B681B68AA4A93426CD182
:105420007B681C68FDF792F8024613469B00134404
:105430009A001A447B685B685B00B2FBF3F3A24AF4
:10544000A2FB03235B091D01FDF780F8024613460A
:105450009B0013449A001A447B685B685B00B2FBB4
:10546000F3F6FDF773F8024613469B0013449A00C7
:105470001A447B685B685B00B2FBF3F3924AA2FBC1
:1054800003235B09642202FB03F3F31ADB003233CC
:105490008D4AA2FB03235B095B0003F4F8731D44F0
:1054A000FDF754F8024613469B0013449A001A4431
:1054B0007B685B685B00B2FBF3F6FDF747F80246DA
:1054C00013469B0013449A001A447B685B685B0098
:1054D000B2FBF3F37C4AA2FB03235B09642202FBC9
:1054E00003F3F31ADB003233774AA2FB03235B0991
:1054F00003F007032B44A36054E17B681C68FDF7AD
:1055000011F8024613469B0013449A001A447B6824
:105510005B685B00B2FBF3F36B4AA2FB03235B09FE
:105520001D01FCF7FFFF024613469B0013449A003F
:105530001A447B685B685B00B2FBF3F6FCF7F2FF92
:10554000024613469B0013449A001A447B685B682A
:105550005B00B2FBF3F35C4AA2FB03235B0964220A
:1055600002FB03F3F31ADB003233574AA2FB032397
:105570005B095B0003F4F8731D44FCF7D3FF02469C
:1055800013469B0013449A001A447B685B685B00D7
:10559000B2FBF3F6FCF7C6FF024613469B0013442A
:1055A0009A001A447B685B685B00B2FBF3F3464ADF
:1055B000A2FB03235B09642202FB03F3F31ADB0063
:1055C0003233414AA2FB03235B0903F007032B4458
:1055D000A360E7E07B681B68394A934204D07B688C
:1055E0001B68384A934271D17B681C68FCF7AEFF98
:1055F000024613469B0013449A001A447B685B687A
:105600009B00B2FBF3F3304AA2FB03235B091D01AD
:10561000FCF79CFF024613469B0013449A001A4471
:105620007B685B689B00B2FBF3F6FCF78FFF0246DA
:1056300013469B0013449A001A447B685B689B00E6
:10564000B2FBF3F3204AA2FB03235B09642202FBB3
:1056500003F3F31A1B0132331B4AA2FB03235B093A
:1056600003F0F0031D44FCF771FF024613469B0054
:1056700013449A001A447B685B689B00B2FBF3F604
:10568000FCF764FF024613469B0013449A001A4439
:105690007B685B689B00B2FBF3F30B4AA2FB03231E
:1056A0005B09642202FB03F3F31A1B013233064A3F
:1056B000A2FB03235B0903F00F032B44A36071E0FB
:1056C00000100140001401401F85EB517B681C68ED
:1056D000FCF728FF024613469B0013449A001A4425
:1056E0007B685B689B00B2FBF3F3304AA2FB0323A9
:1056F0005B091D01FCF716FF024613469B0013448D
:105700009A001A447B685B689B00B2FBF3F6FCF7D7
:1057100009FF024613469B0013449A001A447B6813
:105720005B689B00B2FBF3F3204AA2FB03235B09F7
:10573000642202FB03F3F31A1B0132331B4AA2FB60
:1057400003235B0903F0F0031D44FCF7EBFE024664
:1057500013469B0013449A001A447B685B689B00C5
:10576000B2FBF3F6FCF7DEFE024613469B00134441
:105770009A001A447B685B689B00B2FBF3F30B4A08
:10578000A2FB03235B09642202FB03F3F31A1B0150
:105790003233064AA2FB03235B0903F00F032B44B9
:1057A000A360FFE700BF1437BD46F0BD1F85EB5176
:1057B00084B080B485B000AF786007F11C0080E849
:1057C0000E000023FB60FA693B6A1A437B6A1A43A6
:1057D000BB6A1A43FB6A1A433B6B1343FA681343D1
:1057E000FB607B685B6823F4FD4323F07F03FA686A
:1057F0001A437B685A60002318461437BD465DF88B
:10580000047B04B0704780B483B000AF78607B68DD
:10581000D3F8803018460C37BD465DF8047B7047DE
:1058200080B483B000AF786039603B681A687B68E9
:10583000C3F88020002318460C37BD465DF8047B72
:10584000704780B483B000AF78607B6803221A6031
:10585000002318460C37BD465DF8047B704780B4C2
:1058600083B000AF78607B681B6803F003031846C1
:105870000C37BD465DF8047B704780B485B000AF3F
:10588000786039600023FB603B681A687B689A6027
:105890003B685A683B689B681A433B68DB681A435D
:1058A0003B681B691343FA681343FB607B68DB6842
:1058B00023F47F6323F00F03FA681A437B68DA60EE
:1058C000002318461437BD465DF8047B704780B44A
:1058D00083B000AF78607B681B69DBB218460C3779
:1058E000BD465DF8047B704780B485B000AF78603A
:1058F00039600023FB607B6814331A463B6813440D
:10590000FB60FB681B6818461437BD465DF8047BD6
:10591000704780B485B000AF786039600023FB60C9
:105920003B681A687B685A623B685A687B689A626F
:105930003B689A683B68DB681A433B681B691A43FB
:105940003B685B691343FA681343FB607B68DB6A5F
:1059500023F0F702FB681A437B68DA6200231846DB
:105960001437BD465DF8047B704780B588B000AF42
:10597000786039600023FB613B68BB601023FB60EB
:1059800040233B6100237B614FF48063BB6107F1DF
:10599000080319467868FFF770FF41F2883210213A
:1059A000786800F0D3F9F861FB6918462037BD46E6
:1059B00080BD000080B588B000AF78600023FB6137
:1059C0000023BB600C23FB6040233B6100237B6111
:1059D0004FF48063BB6107F1080319467868FFF74D
:1059E0004CFF054A0C21786800F0B0F9F861FB69BA
:1059F00018462037BD4680BD00E1F50580B58AB068
:105A000000AFF860C7E9002300237B623B683B617D
:105A100007237B614023BB610023FB614FF480635C
:105A20003B6207F110031946F868FFF726FF41F2C1
:105A300088320721F86800F089F978627B6A184695
:105A40002837BD4680BD80B588B000AF78600023A0
:105A5000FB610023BB600023FB6000233B6100234C
:105A60007B614FF48063BB6107F1080319467868D6
:105A7000FFF703FF786800F03FF9F861FB6918460B
:105A80002037BD4680BD80B588B000AF7860002368
:105A9000FB614FF4D573BB600823FB6040233B617F
:105AA00000237B614FF48063BB6107F10803194653
:105AB0007868FFF7E2FE786800F010FBF861FB6998
:105AC00018462037BD4680BD80B588B000AF7860ED
:105AD00039600023FB613B68BB603723FB604023D8
